:10000000580C002011150000AD48000041150000FB
:100010004115000041150000411500004115000088
:100020000000000000000000000000005913000064
:100030004115000000000000111300004F470000B0
:10004000D1140000D1140000D1140000D11400001C
:10005000D1140000D1140000D1140000D11400000C
:10006000D1140000D1140000D1140000D1140000FC
:10007000D1140000D1140000D1140000D1140000EC
:10008000D1140000D1140000D1140000D1140000DC
:10009000D1140000D1140000D1140000D1140000CC
:1000A000D1140000D1140000D1140000D1140000BC
:1000B000D1140000D1140000D1140000D1140000AC
:1000C000D1140000D1140000D1140000D11400009C
:1000D000D1140000D1140000D1140000D11400008C
:1000E000D1140000D1140000D1140000D11400007C
:1000F000D1140000D1140000D1140000D11400006C
:10010000D1140000D1140000D1140000D11400005B
:10011000D1140000D1140000D1140000D11400004B
:10012000D1140000D1140000D1140000D11400003B
:10013000D1140000D1140000D1140000D11400002B
:10014000D1140000000000000000000000000000CA
:10015000000000000000000000000000000000009F
:10016000000000000000000000000000000000008F
:10017000000000000000000000000000000000007F
:10018000000000000000000000000000000000006F
:10019000000000000000000000000000000000005F
:1001A000000000000000000000000000000000004F
:1001B000000000000000000000000000000000003F
:1001C000000000000000000000000000000000002F
:1001D000000000000000000000000000000000001F
:1001E000000000000000000000000000000000000F
:1001F00000000000000000000000000000000000FF
:10020000DEE61E284CBBCE8F025B00003C000000E7
:10021000008000000100000000000000000000005D
:10022000FFFF02910000000000000000000000003D
:0C023000000000000000000000000000C2
:10023C0053B94AB9002908BF00281CBF4FF0FF3141
:10024C004FF0FF3000F06CB9ADF1080C6DE904CE45
:10025C0000F006F8DDF804E0DDE9022304B0704795
:10026C002DE9F047089D04468846002B7DD18A4233
:10027C0017463FD9B2FA82F242B1C2F12000914046
:10028C00974024FA00F0944040EA01084FEA174CDA
:10029C00230C1FFA87FEB8FBFCF60CFB168106FB41
:1002AC000EF043EA0143984205D9FB1802D298425A
:1002BC0000F22481013E191AA3B2B1FBFCF00CFB35
:1002CC00101100FB0EFE43EA0144A64505D93C196A
:1002DC0002D2A64500F20F81013840EA0640A4EB99
:1002EC000E0400261DB1D4400023C5E9004331465D
:1002FC00BDE8F08702B9FFDEB2FA82F2002A50D1D3
:10030C00CB1B4FEA174E1FFA87F80126210CB3FBC3
:10031C00FEFC0EFB1C300B4608FB0CF941EA0041BD
:10032C0089450AD979182CBF01230023894502D9A4
:10033C00002B00F0D9800CF1FF3CA1EB0901A3B21A
:10034C00B1FBFEF00EFB101108FB00F843EA014470
:10035C00A04505D93C1902D2A04500F2C98001384C
:10036C00A4EB080440EA0C40BCE78B4209D9002DF1
:10037C0000F0B1800026C5E9000130463146BDE8E9
:10038C00F087B3FA83F6002E46D18B42C0F0A680DC
:10039C00824240F2A3803046002DA8D0C5E9004827
:1003AC00A5E79740C2F1200301FA02F04FEA174E7D
:1003BC00D94024FA03F31FFA87F894400343B1FBA6
:1003CC00FEF01E0C0EFB101100FB08FC46EA01416E
:1003DC008C4509D979182CBF012600268C4502D9E9
:1003EC00002E00F093800138A1EB0C019BB2B1FB05
:1003FC00FEF60EFB161106FB08FC43EA01418C4588
:10040C0005D9791802D28C4500F28780013EA1EB08
:10041C000C0346EA004679E7C6F1200703FA06F416
:10042C0002FA06FC01FA06FEFA4020FA07F8F94037
:10043C0000FA06F3224348EA0E044FEA12484FEA48
:10044C00144E1FFA82F9B1FBF8FA08FB1A110AFBD9
:10045C0009F04EEA014E70450AD912EB0E0E2CBF74
:10046C0001210021704501D9002952D00AF1FF3A2F
:10047C00AEEB000EA4B2BEFBF8F008FB10EE00FBD6
:10048C0009F944EA0E4EF14505D912EB0E0E01D2D4
:10049C00F14538D8013840EA0A40AEEB090EA0FB12
:1004AC000C89CE4541464C4602D306D1434504D275
:1004BC000138B8EB0C0169EB020415B35A1A6EEB58
:1004CC00040EF2400EFA07F72EFA06F30026174335
:1004DC00C5E900730BE72E46284608E7841A61EB42
:1004EC0003010120884657E7ACF1020C394424E79C
:1004FC0002383C4434E702383C44EEE6023E3B44CE
:10050C00D9E62E46F3E602389644C4E7023839445D
:10051C006AE7AAF1020A9644AAE7023E394476E752
:10052C00704700BF2DE9E04F2746A046A146A246E2
:10053C00A346A4462DED108B4FF0000545EC185B3F
:10054C0045EC195A45EC1A5A45EC1B5A45EC1C5A09
:10055C0045EC1D5A45EC1E5A45EC1F5AF1EE105A4B
:10056C004FF66076C0F6FF763540E1EE105A84F314
:10057C00008825462646A447BDEC108BBDE8E08FCD
:10058C000B6801330B60014B1B68184700000020FF
:10059C002DE9F04F2DED028B83B00E9C9A46012C69
:1005AC00B8BF0124012B0CBF30232023154606466F
:1005BC0008EE103A01274FF00A080022DFF874B059
:1005CC00B5FBFBF90AB9AB4520D809F13000009115
:1005DC00B0470122013700990A2308F1FF38B8F11E
:1005EC00010F0BFB1955BBFBF3FBE9D105F13000F7
:1005FC000091B047BAF1030F009902D1E41B002C13
:10060C0011DC03B0BDEC028BBDE8F08F4445E3DB9D
:10061C00BAF1020FE0D818EE100ACDE9001201373A
:10062C00B047019AD7E720200091013CB0470099D0
:10063C00E5E700BF00CA9A3B014B1860704700BF4A
:10064C00000000202DE9F04F002705468B464FF0A7
:10065C00FF39B8461C468DB0531E0393002605E0A7
:10066C006EB9252800F071815946A847039B13F8F1
:10067C00010F03930028F3D10DB0BDE8F08F7A2859
:10068C000AD8622810D8302854D045D8252800F034
:10069C005A812D2800F05F8159462520A8475946DC
:1006AC00039B1878A847D9E7A0F16303172BF3D85D
:1006BC0001A252F823F000BF4B0900008F07000085
:1006CC00A5060000A5060000A506000071070000A5
:1006DC008F070000A5060000A506000071070000AA
:1006EC00A5060000A5060000A506000031080000C4
:1006FC00A5060000A50600001B090000A5060000C9
:10070C00FF070000A5060000A50600002D0700004D
:10071C00A50600007107000039281AD95828BBD14A
:10072C00039B1B78702B40F0888054F8043B00220C
:10073C00069390E0B9F1000F0EDAB8F1000F00F05B
:10074C000D81A0F13009B8F1000F08BF4FF002087D
:10075C008CE7B9F1000FF4DB0A2303FB0909A9F1BB
:10076C003009F0E7682803D1682F06D148277DE7C8
:10077C006C2802D16C2F00F0F480002F8CD107462E
:10078C0074E77A2F02D154F8046B21E06C2FFAD065
:10079C004C2FF8D1073424F00704F4E80223CDE9F8
:1007AC000423049B4FF0FF3013F10041059B08918B
:1007BC0043F1000109910021DDE90823994208BFAA
:1007CC00904204D25946284603F031FE46E7049E77
:1007DC00002E05DA59462D20A847764209F1FF393B
:1007EC0043463246CDF8009059462846FFF7D0FED6
:1007FC0034E77A2F02D154F8042B0FE06C2FFAD087
:10080C004C2FF8D100214FF0FF30073424F00704AF
:10081C00F4E80223994208BF9042D3D34346CDF863
:10082C000090E1E759463020A84759467820A84760
:10083C004FF008094FF0010872E76C2F3FF475AFC9
:10084C004C2F7FF472AFE31D23F007031C4654F8C2
:10085C00082B06925A68002110234FF0400A04918D
:10086C000791AAF1040A0699CAF1200EAAF1200CEC
:10087C0021FA0AF002FA0EFE40EA0E0022FA0CFCF3
:10088C0040EA0C0010F00F0007D1079911B9BAF12A
:10089C00000F25D14FF0300C05E009288CBF4FF02C
:1008AC00570C4FF0300C6044594640B20A920793F3
:1008BC00A847049B0A9A01330493079BBAF1000FD3
:1008CC0023D1B8F1030F7FF4C9AE049BC3EB4906E7
:1008DC00002E7FF7C3AE59462020A847013EF7E70C
:1008EC00591E99450A9107DBB8F1010F06D15946FB
:1008FC0030200B92A8470B9A0A9BB2E7B8F1020F73
:10090C00FAD1594620200B92F4E70796A9E754F840
:10091C00046BB24653461AF8010B68B9B8F1030FD1
:10092C0021D19E1BA9EB0606002E7FF797AE5946E8
:10093C002020A847013EF7E75946A847EAE7594661
:10094C0054F8040BAEE65946ACE63746B0464FF0C9
:10095C00FF3901268AE64FF0030887E64FF00108BD
:10096C0084E64C2782E6064680E600BF07B50B46B8
:10097C00002102460191034801A9FFF763FE03B071
:10098C005DF804FB8D0500004FF02002EFF311839E
:10099C0082F31188BFF36F8F0121044AC2F840150E
:1009AC0083F31188BFF36F8F0020704700900350C2
:1009BC0020B1034B800143F001031847704700BF7F
:1009CC002051000008B5064801F0A4FE054B186044
:1009DC00054801F0F7F80448FFF72EFE002008BD8B
:1009EC00D253000088010020F90900000A2838B50C
:1009FC000446074D04D1286883680D215B6898472D
:100A0C0028688368E1B25B689847204638BD00BF10
:100A1C0088010020F8B50C24114F0546FB6804FB37
:100A2C000034012363724FF02003EFF3118183F341
:100A3C001188BFF36F8F23682BB166681A68B342B5
:100A4C00226008BF626081F31188BFF36F8F03B916
:100A5C00F8BD2946D3E901623846B047E3E700BF49
:100A6C00BC00002008B5114B1A686AB14FF0502237
:100A7C00D2F80423D10707D500221A600C4BDB688F
:100A8C00587A08B9FFF7C6FF0A4B1A6862B14FF0E3
:100A9C005022D2F80423920706D5002201201A60B6
:100AAC00BDE80840FFF7B6BF08BD00BF00510050BD
:100ABC00BC00002004510050821C084B22F07F42E5
:100ACC00C3F84025D3F80425904200D17047D3F8E1
:100ADC000405821C22F07F42F2E700BF0050015057
:100AEC000022064B1A60064AD3F800041368C01A99
:100AFC0020F07F400344136002F02ABD40510150A6
:100B0C00A401002038B5144801F004FE00B383683A
:100B1C00002401211B6898474FF400120F4D104B15
:100B2C00C5F808451C600F4B0121C3F880214FF418
:100B3C0080332246C5F80433152000F027FC15201D
:100B4C0000F014FC01232046074A13602B6038BDCB
:100B5C004FF0FF30FBE700BF9955000000500150EB
:100B6C004051015000E100E008500150F8B52C4B09
:100B7C002C4CD3F804252C4BB0F1FF3F08BF20467A
:100B8C001968521A22F07F43120236D4013820EA37
:100B9C00E070A042A8BF204601331844A04294BF85
:100BAC000C180C194FF4803000271D4B1F4EC3F846
:100BBC000803D3F80415D3F8402521F07F45521AC9
:100BCC0022F07F42012A3760C3F840551D46C3F816
:100BDC00440303D10F2004F0E4F837604FF4001203
:100BEC00134BC3F88021D5F80405231A23F07F4357
:100BFC00012B04D1FFF760FF0BE00020CCE724F0C1
:100C0C007F43C5F84035D5F80405241A023C23026D
:100C1C00F0D44FF48032024BC3F80423F8BD00BF6C
:100C2C0000500150FFFF7F00A401002040510150F3
:100C3C0000E100E04FF02002EFF3118382F3118802
:100C4C00BFF36F8F064AD2F80405064A1268801A61
:100C5C0020F07F4083F31188BFF36F8F704700BF84
:100C6C0000500150A4010020034610B588B08DF847
:100C7C0007300DF1070302930123094ACDE905134F
:100C8C0010680393002207238DF810208DF81C3078
:100C9C00836802225C6802A94623A04708B010BDF5
:100CAC00A801002070B586B00E460DF1070105466F
:100CBC001446FFF7D9FFC8B99DF807308DF80850D6
:100CCC0023EA06010A4B44EA0102186802AB0393BB
:100CDC0002238DF807208DF8092004938DF8143029
:100CEC00836801225C6803A94623A04706B070BD47
:100CFC00A801002008B501F00DFD024B1860002082
:100D0C0008BD00BFA8010020F7B500281C460D4601
:100D1C0014BF4FF400534FF40043204E954232D38E
:100D2C0002FB03F0013A4B4300901D4803F08DFB8E
:100D3C001C4B14F0100F1C491C4808BF194603F03B
:100D4C0084FB14F0040F14BF72212D21184803F0FA
:100D5C007CFB14F0020F14BF77212D21144803F0F3
:100D6C0074FB14F0010F0CBF2D217821104803F0F7
:100D7C006CFB6C210E4803F068FB0E4803B0BDE819
:100D8C00F04003F062BB28B105F5E07746F8274048
:100D9C000135C3E705F5C077F8E700BF0030005018
:100DAC00F8530000EC530000E353000077550000AB
:100DBC00125400005357000008B543B2002B0CDB53
:100DCC00012200F01F018A405B091049203341F8D1
:100DDC002320BFF34F8FBFF36F8F830003F1A0432A
:100DEC0003F540533128D3F8002806D0002A07DA3F
:100DFC0002F00302023A012A02D8054AC3F800287D
:100E0C00002103F01EFD002008BD00BF00E100E042
:100E1C000001008030B54FF440444CF2040585B01D
:100E2C004FF440412C4803F010FB21682B4803F091
:100E3C000CFB29682A4803F008FB102200216846A5
:100E4C0003F0BDFD236868460093029400F044FE55
:100E5C00012000F071FE002000F05AFE002000F08E
:100E6C007FFE0121002000F099FE00F08DFE2C6821
:100E7C001C4803F0EAFA0820FFF79EFF24F0010457
:100E8C00BFF34F8FBFF36F8F640864002046214679
:100E9C0022462346B7EE000AF7EE000AB7EE001A18
:100EAC00F7EE001AB7EE002AF7EE002AB7EE003A7A
:100EBC00F7EE003AB7EE004AF7EE004AB7EE005AEA
:100ECC00F7EE005AB7EE006AF7EE006AB7EE007A5A
:100EDC00F7EE007AFFF726FB155400002C540000A7
:100EEC00415400005F5400002DE9F8433B4803F0E7
:100EFC00ACFA002140F2171308460122FFF704FF59
:100F0C0040F20713202201210020FFF7FDFE344898
:100F1C0003F09BFA334B344AC3F3C431C3F30E03CF
:100F2C00C3F50043C3F34313C2F80015C2F80435EC
:100F3C00D2F80015D2F804252C48520103F085FA9A
:100F4C00274803F082FA03F02CFC014610B1284824
:100F5C0003F07BFA0024274803F077FA40F21713CA
:100F6C00082200210120FFF7CFFE1F4D40F207138E
:100F7C00202208210120FFF7C7FE194803F065FA6B
:100F8C00C5F880441C4803F060FA1C4FC5F8C044F7
:100F9C00DFF87C801A4DDFF87C906E792146002EAC
:100FAC0014BF3B46434648462A6803F04EFA66B9DE
:100FBC001448013403F049FA1A2C05F10805ECD158
:100FCC000748BDE8F84303F040BA2879FFF7F4FE70
:100FDC0008B10D48EDE70D48EBE700BF9554000054
:100FEC0053570000E07F000000300050B95400005F
:100FFC00FF5400002F550000515500008A5400008A
:10100C003C5100007A5500008155000089550000C4
:10101C00F05300006D55000010B500284BD0002A8D
:10102C0049D0264B99423CD9541803F61D239C42B7
:10103C003AD803F099FC0020BDE810407146724686
:10104C007346B7EE000AF7EE000AB7EE001AF7EE99
:10105C00001AB7EE002AF7EE002AB7EE003AF7EEC8
:10106C00003AB7EE004AF7EE004AB7EE005AF7EE38
:10107C00005AB7EE006AF7EE006AB7EE007AF7EEA8
:10108C00007A8EF3008C10B4F1EE10CA4FF6607437
:10109C00C0F6FF740CEA040CE1EE10CA10BCF44666
:1010AC007447074B994203D9064B54189C42C0D93C
:1010BC004FF0FF30C0E76FF01500BDE70302FF00F3
:1010CC002F01FF003801FF002DE9F04F81460E463D
:1010DC0085B0002954D04FF00008DFF8B8B0DFF825
:1010EC00B8A001AF5BF8045B9AE807004D4487E8B1
:1010FC0007000C223946284603F00FFC044608B9B9
:10110C00002D40D108F10108B8F1050FEAD16FF0BC
:10111C000D04204605B0B7EE000AF7EE000AB7EE54
:10112C00001AF7EE001AB7EE002AF7EE002AB7EE17
:10113C00003AF7EE003AB7EE004AF7EE004AB7EE87
:10114C00005AF7EE005AB7EE006AF7EE006AB7EEF7
:10115C00007ABDE8F04F714672467346F7EE007A9E
:10116C008EF3008C10B4F1EE10CA4FF66074C0F61A
:10117C00FF740CEA040CE1EE10CA10BCF446744780
:10118C006FF01504C5E73C222946304603F0ECFB12
:10119C00BFE700BF0C520000D0500000014802F025
:1011AC005BBC00BF2052000008B530B143683BB1B6
:1011BC00006801F0B1FC002008BD6FF4E040FBE7D3
:1011CC000048F9E7EA8FFFFF38B5044618B90B4B16
:1011DC000B485B689847656855B115F002052068A7
:1011EC0007D10146074801F0F5FB25600023636039
:1011FC0038BD1422002103F0E2FBF7E79000002039
:10120C008A560000AC01002010B5044618B9144BE6
:10121C0014485B6898476368CBB92368BBB94FF037
:10122C00FF324FF0FF3321460F4801F0A1FB08B904
:10123C0023681BB90A4B0D485B68984714220021A0
:10124C00206803F0BCFB636843F002036360206812
:10125C0003F0CCFC636843F00103636010BD00BF76
:10126C00900000208A560000AC010020B05600000F
:10127C0008B568B1436873B100684FF0FF334FF0A5
:10128C00FF3201F0D1FB054B002818BF184608BDF2
:10129C006FF4E040FBE70248F9E700BFE98FFFFF7E
:1012AC00EA8FFFFF08B5064940231422054803F0D6
:1012BC0082FCBDE808400449044802F005BC00BFAC
:1012CC00C8010020AC010020385200002852000058
:1012DC00094A0A4993680968D866196708494B682E
:1012EC0043F080534B60002383F31188BFF36F8F5F
:1012FC009368186F704700BFF8070020D8520000A1
:10130C0000ED00E00F498A684FF030001044EFF315
:10131C00098C80E8F01F202080F31188BFF36F8FB9
:10132C00094F4FF000664A6A8A603E60D06E002317
:10133C00D36680F3118802F1300090E8F01F8CF333
:10134C0009887047F807002004ED00E01EF0040F38
:10135C000CBFEFF30880EFF30980816911F8021CD0
:10136C000229FFD001B503F097FA01BD43B2002B5F
:10137C0008DB012200F01F0002FA00F0024A5B09B0
:10138C0042F82300704700BF00E100E043B2002B9D
:10139C0001F10101ACBF03F16043064B4FEA41116F
:1013AC00C9B2ABBF03F5614300F00F0083F8001323
:1013BC001954704714ED00E0C0E918120A44203AA1
:1013CC0022F007021360009B07495360019B21F038
:1013DC0001019360029B9161D3604FF08073D361E4
:1013EC0000230265C366704771440000F8B51D46C2
:1013FC0006460C4617460023E1EE103A00F0F4F9CD
:10140C00084BE21922F007049E60284684F30988F1
:10141C00002163B681F31188BFF36F8F0022002384
:10142C0003F020F8F8070020014910220A607047E9
:10143C0010ED00E072B6404080F31188BFF36F8F5F
:10144C00BFF34F8F30BF62B6BFF36F8F704700BFD3
:10145C0030BFFFF7FDBF00BF174A08B5174B22F08E
:10146C007F029A60BFF34F8FBFF36F8FD3F8882042
:10147C0022F47002C3F88820D3F8882042F4A0022A
:10148C00C3F888200E4A536823F040435360BFF3DF
:10149C004F8FBFF36F8F0023E1EE103AEFF31483FD
:1014AC0023F0040383F3148801F072F901F07AF944
:1014BC0000F068F901F0B4F90000000000ED00E064
:1014CC0030EF00E001B572B60B4A106A00281EBF5F
:1014DC000021116203F06DFB62B6EFF30580A0F101
:1014EC0010004FEAC0000549014409C99847BDE8FE
:1014FC000140034908470000F8070020C04E0000D7
:10150C005117000003F063F8202080F3118808487D
:10151C004FF40061401880F30988EFF31480022126
:10152C00084380F31488BFF36F8FFFF795FF00001B
:10153C00980D0020EFF30880EFF30981724601B596
:10154C0000F06CF801BD00BF0C4B9A6A9A6A9A6A5B
:10155C00920708D55A6B9A6A120604D518B19A6A82
:10156C0022F080029A620020044B9A6A9A6A9A6A64
:10157C009A6A42F0FF029A620870704700ED00E030
:10158C000D4B9A6A9A6A9A6A920508D59A6B9A6A6E
:10159C00120404D518B19A6A22F400429A6200200F
:1015AC00054B9A6A9A6AD20558BF9A6A9A6A42F4AB
:1015BC007F429A620870704700ED00E0074B0020F4
:1015CC009A6A9A6A9A6A9A6A9A6A9A6A9A6A9A6AEF
:1015DC006FEA02426FEA12429A62704700ED00E035
:1015EC000D4B9A695A695A69D0070FD45A699107F9
:1015FC000CD45A69520709D45A69100706D45A698F
:10160C00D10603D45A69920658BF5A695A6942F0F6
:10161C00FF025A61704700BFD0ED00E0F0B5414BBE
:10162C0000255B688BB0C3F3080385F31188BFF307
:10163C006F8F02F07F44B4F17F4F1ED112F0010482
:10164C001AD0560602F0080467D482F00402C2F3E2
:10165C00800564B1EFF389860022033B8DF80720E7
:10166C00042B4BD8DFE803F00B4C50414800EFF350
:10167C008886F1E70E46EFE725462E46ECE7294B28
:10168C00DA6A92073AD4DC6A14F0804408D0283322
:10169C001B78EBB101200DF10701FFF755FF044654
:1016AC009DF8073093B92022314602A803F05CF96B
:1016BC00099B6DB3C3F3080222B96FEA53236FEA97
:1016CC0043230993204602A903F0E4F80BB0F0BDC4
:1016DC00154B1B782BB101200DF10701FFF750FFC3
:1016EC00DDE7124B1F88BFB217B1FFF767FFD6E7D4
:1016FC000F4B5C69002CD3D0FFF772FF0024CFE7AF
:10170C0000200DF10701C8E700200DF10701E5E706
:10171C0023F4FF7323F00103D3E7002CAAD1064670
:10172C00012599E700ED00E029ED00E02AED00E04D
:10173C00D0ED00E0024A536943F010035361704747
:10174C0000ED00E0044B9968586A884203D00349C5
:10175C004FF080520A607047F807002004ED00E05B
:10176C00BFF34F8F0549064BCA6802F4E06213437E
:10177C00CB60BFF34F8F00BFFDE700BF00ED00E073
:10178C000400FA05002320210348C2180133412B21
:10179C0082F80013F9D1704700E100E038B5044637
:1017AC004FF02003EFF3118583F31188BFF36F8F94
:1017BC0001F0A6FB0A4B9B68A3420BD1094B5A685C
:1017CC00C2F3080212B92846FFF782FD5A6842F0AC
:1017DC0080525A602846BDE8384003F019BA00BF61
:1017EC00F807002000ED00E010B50E4B88B0029316
:1017FC000D4B0E4C03930E4B0E4A049302AB01930C
:10180C0001A82346012100F007F9002307930A4B96
:10181C000121E41A05A80593069400F007F908B015
:10182C0010BD00BF000000200000000000000120DF
:10183C0006000100000000208001002010B50B689C
:10184C000C7A23F01F0204F01F031A43CB686409BF
:10185C0023F01F03044943EA440343F00103886067
:10186C00CA600B6110BD00BF90ED00E02DE9F04F98
:10187C0007468846144600264A4D85B046450BDA85
:10188C0057F82630D3F80490B9F1000F3AD0B9F1DB
:10189C001F0F05D86FF01504204605B0BDE8F08F7A
:1018AC0019F01F0FF6D1D3F800A01AF01F0FF1D1C9
:1018BC00504603F01CF8834609EB0A00013803F08C
:1018CC0016F88345E6D11BF1160FE3D0631E5B457A
:1018DC00E0DBC5F808B0E868C5F808B02B6957F824
:1018EC00261020F01F0043F01F0AD1E900321A44E1
:1018FC00984202F1FF3918D1CA4505D15FFA8BF035
:10190C0002F0D5FF0136B9E7C5F808B0EB6822F054
:10191C001F0203F01F031A43EA60E0B202F0C7FF94
:10192C0010F1160FB6D0441CECE7C5F808B02A69C4
:10193C00013B23F01F0302F01F021343CA45E0B220
:10194C002B61EBD002F0B3FF10F1160FA2D0C5F84B
:10195C0008B0EA689DF808300AF1FF3A62F3040314
:10196C008DF808302B699DF808205B0863F347124B
:10197C0057F826308DF80820D3E900130B44009358
:10198C0023F01F0301305344A3EB0903C0B223F02F
:10199C001F030F2803933FF67DAF6946FFF74EFFF9
:1019AC00C1E700BF90ED00E00522034B5A60BFF386
:1019BC004F8FBFF36F8F704790ED00E0BFF35F8FD9
:1019CC000022014B5A60704790ED00E038B50E4C88
:1019DC002568102D14D8FFF7F1FF00200B4B0C4A93
:1019EC001A63854205D10B4B1D70FFF7DDFF0020FC
:1019FC0038BD616801EB0011FFF720FF0130F0E703
:101A0C004FF0FF30F4E700BF4C52000090ED00E0C7
:101A1C00AAFF44005408002010B5034C2278FFF7AD
:101A2C0025FF207010BD00BF540800202DE9F74F92
:101A3C00264D8A4606464FF00008AB46244FD0454B
:101A4C001BDAD6F80490B9F1000F39D0316808468A
:101A5C00019102F04CFF0199044609EB0100013899
:101A6C0002F045FF84424FF014021A4B08D06FF07D
:101A7C00150302FB08F84BF8083003B0BDE8F08FF3
:101A8C0014F1160F2C60F8D01978A142F5DD02FB89
:101A9C0008B0BC60BC60FC6800F10801007B64F31A
:101AAC000400087138690C79400860F347140C7114
:101ABC00F96821F01F016960396921F01F01296162
:101ACC0008F1010814350C36B9E700BFC806002030
:101ADC0090ED00E05408002082680C4B9A6003687B
:101AEC0083F38888436883F38988027B02F00101C1
:101AFC00EFF3948323F00303920748BF43F00203F0
:101B0C0009B143F0010383F39488704700ED02E0C0
:101B1C00084AD36848B123F400531B041B0C43F050
:101B2C00BF6343F40033D36070479BB243F400535C
:101B3C00F5E700BF00ED00E0084AD36840B19BB266
:101B4C0043F4804343F0BF6343F40033D3607047E6
:101B5C0023F480431B041B0CF4E700BF00ED00E0F2
:101B6C00084AD36840B19BB243F0080343F0BF630B
:101B7C0043F40033D360704723F008031B041B0CA1
:101B8C00F4E700BF00ED00E0034AD2F88C3043F4D8
:101B9C004063C2F88C30704700ED00E0084B1A68C7
:101BAC0018B142F001021A60704722F001021A606B
:101BBC001A6811B142F00202F5E722F00202F2E7D4
:101BCC00D0ED00E0014B1860704700BF24000020EE
:101BDC0008B51248FFF78EF8F0B902F0CCFDD8B971
:101BEC0002F0D5FDC0B9012002F0D6FDA0B901204C
:101BFC0002F0C6FD80B9072002F0ABFD60B91F20D2
:101C0C0002F0A1FD40B9072002F0AEFD20B9BDE8FD
:101C1C000840012002F0A3BD08BD00BFEC56000037
:101C2C0010B50446002201210A20FFF7AFFB6068C3
:101C3C002346064A00F1080100F0CCFA044B984206
:101C4C0014BF6FF00F00002010BD00BF211D00005D
:101C5C000000AD0B2DE9F04F044687B00D4616463B
:101C6C009846C0684FF0FF324FF0FF3301F00AFB8B
:101C7C00606800F0F3FA0027DFF89490B742D4F8CC
:101C8C0004B001D3002522E095F808A01AF0080151
:101C9C0036D1142201A802F092FE0AF001038DF84D
:101CAC0004306B681AF0020F02932B680CBF2022D1
:101CBC000022584601A98DF80580049300F0FAFA29
:101CCC0048450ED0114B98421DD06FF0040560684A
:101CDC0000F0D4FAE06801F0B5FA284607B0BDE888
:101CEC00F08FE06810304FF0FF334FF0FF3201F00F
:101CFC00C9FAE3680C351B6A4B45E6D10137BDE7E1
:101D0C006FF02205E3E76FF00F05E0E70B00AD0B7A
:101D1C000000AD0B0278CB68012A08D0022A08D04B
:101D2C004AB9064A1A6203F1100001F08BBA044A50
:101D3C00F8E7044AF6E7044AF4E700BF0000AD0BED
:101D4C000100AE0B0200AE0B0100AD0BF0B54B79F0
:101D5C00012B29D0032B24D110268B79032B20D1D6
:101D6C00CC7924B1012C1CD143681B79CBB10A79F5
:101D7C0012B1022A15D10E220B684568B3F5164F25
:101D8C002D6864D02DD8B3F5165F63D016D8B3F593
:101D9C00966F61D00AD8B3F5967F60D0B3F5167FF5
:101DAC0060D06FF0220051E00026D6E7B3F5166F35
:101DBC005BD0B3F5965FF4D1364B3CE0B3F5E14F15
:101DCC0056D007D8B3F5615F54D0B3F5964FE8D130
:101DDC00314B30E047F61227BB42E2D14FF40003FF
:101DEC0029E0B3F5613F47D013D8B3F5963F46D001
:101DFC0009D84DF6C027BB4243D0B3F5614FD0D1C3
:101E0C004FF46B0317E0B3F5E13FCAD14FF0EB731E
:101E1C0011E0B3F5612F37D008D8204FBB4236D034
:101E2C00B3F5E12FBDD14FF0E86304E01C4FBB428A
:101E3C00B7D14FF08053C5F824353443C3682243DF
:101E4C0003C9C5F86C2583E803000020F0BD4FF4EE
:101E5C001D03F0E7134BEEE74FF49E23EBE74FF433
:101E6C00A033E8E74FF41C33E5E74FF41D23E2E71A
:101E7C000D4BE0E70D4BDEE74FF06C73DBE70C4BE3
:101E8C00D9E74FF46503D6E74FF07063D3E74FF013
:101E9C008063D0E700B0130000A04E0090D0030088
:101EAC0040420F000050270000C0750000F03A00BF
:101EBC0000903A010122F8B503270D4643680968E2
:101ECC001C68214B8A40C6689A6001F1800243F875
:101EDC0022706A68571C1EBF4FF0000C02F180077D
:101EEC0043F827C0C4F80C15A968C4F814254A1C7B
:101EFC0015D0EA68571C12D001274FF0030C9740FD
:101F0C009F6002F1800743F827C04FF0000C01F1ED
:101F1C00800743F827C0C4F80825C4F810153146CB
:101F2C00FFF714FF70B90823C4F800356B68013350
:101F3C0008D001230C36C4F81001C4F83465C4F879
:101F4C0038352360F8BD00BF0025845030B585B00E
:101F5C0005466C46044B0FCB84E80F0021462846FF
:101F6C00FFF7A8FF05B030BDDC50000030B585B0E0
:101F7C0005466C46044B0FCB84E80F0021462846DF
:101F8C00FFF798FF05B030BDEC5000002DE9F04391
:101F9C000025214C214E54F8048CDFF8889085B034
:101FAC00A84503D8002005B0BDE8F083636A96E825
:101FBC0007001F6801AB83E807000C22194638465E
:101FCC0002F0ABFC90B98FB1636A21691B681A6986
:101FDC0091420BD19A69A169914207D8E16991426A
:101FEC0004D962695B6932EA03030AD0276A67B1D4
:101FFC000B4802F02AFA404080F311884FF004009D
:10200C0002DFE36801351C44CAE7484602F01DFABA
:10201C00636A1F60F5E700BF3C020000FC50000043
:10202C00F956000022570000064B1868043B1B6849
:10203C00092B05D1013801288CBF002001207047E5
:10204C00002070473401FF00054B1868043B1B68E7
:10205C00092B03D1431E584258417047002070474A
:10206C003401FF004E4A08B5136843F002031360B5
:10207C00FFF7DAFF30B14FF050230022C3F81421E0
:10208C00C3F81821FFF7E0FF30B10123454A136074
:10209C00A2F63822C2F87835434B1B68092B07D1BE
:1020AC00424B1B68022B02BF0122414BC3F878251F
:1020BC00FFF7CAFF10B10E223E4B1A60FFF7B4FFB8
:1020CC0020B100223C4B1A6001225A600022D3003E
:1020DC0003F57F03D3F80013013108D0D3F80013B4
:1020EC000132D3F80433B2F5807F0B60EFD1334B60
:1020FC00DA69D1073BD5324B1946D3F80024012AB3
:10210C00FBD1C3F80425D1F80034012BFBD12B4BA8
:10211C00DA69D20708D5DA69294922F00102DA61B5
:10212C00D1F80024012AFBD11A6A01320AD11A6AA9
:10213C0022F0FF0242F020021A62214AD2F8003447
:10214C00012BFBD100221E4BC3F80425D3F800242D
:10215C00012AFBD1BFF34F8F1A491B4BCA6802F4FB
:10216C00E0621343CB60BFF34F8F00BFFDE71B6AE8
:10217C000133C0D0134BD3F88C2042F44062C3F827
:10218C008C20D3F8882042F47002C3F88820BFF367
:10219C004F8FBFF36F8F0D4B0D4A1A6008BD00BFF8
:1021AC00D0ED00E0384A00503001FF003401FF0050
:1021BC0000400050E4AE03500C4700500080FF007C
:1021CC000090035000ED00E00400FA0570000020C0
:1021DC000090D0034FF0340CF8B506791B4D0CFB76
:1021EC0006FC05EB0C0494F82D7067BB45F80C202D
:1021FC0040F20C6C63604B7BA76084F8307084F801
:10220C002F7084F832300C68114F04F1800347F8BA
:10221C0023C04B68006803F1800E47F82EC0C0F84D
:10222C000845C0F80C358B68C0F824351AB140F35A
:10223C000730FFF79BF8342303FB065501230548B1
:10224C0085F82D30F8BD0448FCE700BFDC06002003
:10225C00002584500000AD0B0500AD0B0621026873
:10226C000379C2F800153421034A01FB032302222F
:10227C0083F82D20704700BFDC060020026803792C
:10228C0034200A4900FB0313002009499860C2F866
:10229C000813D2F8001221F4BC51C2F80012C2F893
:1022AC000005012283F82D20704700BFDC060020BA
:1022BC0002029C012DE9F0473426002390F804E03B
:1022CC00A44F046806FB0E7686F82E30CB680D46BC
:1022DC0003F06043B3F1005F944603D09E4E30464A
:1022EC00BDE8F0879D4BC4F8083396F82F3003F007
:1022FC00FF0A23B1B3689A4EC4F80433EFE712F027
:10230C00140F0CBF01230023894686F82F3006F1E9
:10231C000C08B9E80F00A8E80F00D9F80030C6F88F
:10232C0020C0C8F80030CCF3001386F830306B783E
:10233C00C4F888351CF0010318BF0123C4F804A1AC
:10234C00C4F824A1C4F860A1C4F848A1C4F850355D
:10235C001CF0020318BF0123C4F840352B78032B63
:10236C0000F2A980DFE803F078945D022A6902F09C
:10237C006043B3F1005FB1D14FF48073E968C4F8E6
:10238C0000326B68C4F84415C4F8483501210023A9
:10239C00C4F850312162A160D4F850110029FBD04F
:1023AC00C4F85031AB68C4F84425C4F8483534231C
:1023BC004FF4802203FB0E739A600823694E1CF0C5
:1023CC00080F04D12A78032A1CBF0122E2503423BF
:1023DC0003FB0EF3FA18FB58002B6FD10121D4F834
:1023EC004821D4F80401002840F08280003A18BF3C
:1023FC000122D4F8240100287ED0C4F82431D4F86A
:10240C006051D4F8000215B110F4007F04D12162A0
:10241C006161002DE3D00022C0056DD5C4F84831B0
:10242C00DDE76B68EA68C4F84425C4F848352B69C5
:10243C0003F06042B2F1005F7FF450AFAA68C4F8B9
:10244C0034354FF48453C4F83825C4F8003234239F
:10245C00022203FB0E7312E06B68EA681CF0200F7B
:10246C00C4F84425C4F848354FF034030BD04FF46E
:10247C008072C4F800224FF4802203FB0E739A6022
:10248C000123236299E74FF40072C4F80022DFE7BE
:10249C006B68EA68C4F83425C4F838354FF48053B7
:1024AC00C4F800323423022203FB0E739A6001231A
:1024BC002362002382E708232B4E80E71CF0040FD5
:1024CC001CBF002393601CF0400F06D1342303FB88
:1024DC000E739A6842F002029A60342303FB0E7763
:1024EC00BB6843F40073BB60BB68C4F80433F6E606
:1024FC000122C4F804317CE7002A3FF470AF342188
:10250C00002001FB0E72D4F8C434C4F8C43482F831
:10251C002F008BB1154A13F0010F154E18BF16463C
:10252C0013F0020F02F1010218BF164613F0040F4C
:10253C00104B18BF1E46D2E61CF0400F7FF4CFAEF6
:10254C0020460EFB017102F0E8FA094B002808BF87
:10255C001E46C4E6DC0600200A00AD0B02029C01FC
:10256C000B00AD0B0000AD0B0400AD0B0000AE0B6F
:10257C000100AD0B0200AE0BF0B5564B564CD3F828
:10258C0024211D4687B0EAB10022C3F82421D3F8D8
:10259C000421BAB9A268C3F808230222A260A26877
:1025AC00C3F80423D3F860211AB1D3F800329E0586
:1025BC0003D40122474B1A625A61012384F82E304E
:1025CC0007B0F0BDD5F80431002B4ED00023C5F870
:1025DC000431236A5D060AD494F82E303BB93E4987
:1025EC003C4802F09AFA80F0010084F82E00236A2D
:1025FC0013F004071ED1394E01AD0FCE0FC5336851
:10260C0094F830C02B60334BC3F86071C3F85C7125
:10261C00BCF1000F02D094F82E205AB10022C3F85E
:10262C000022A2602E4AC3F808234FF480622D4B7F
:10263C00C3F88021274AD2F8C4349807C2F8C434AE
:10264C003AD501238DF8003094F830300BB984F86A
:10265C002F30236A5B0703D594F82E30002BAFD0B4
:10266C00D4E9003168469847AAE7C5F84831237B7E
:10267C0083B91A4F01AE0FCF0FC63B68336094F885
:10268C003030002BD6D1C5F80032A360144BC5F8FE
:10269C000833CAE74FF40073C5F8003240F2022346
:1026AC00A36003F1CE73C5F80833A368C5F80433EF
:1026BC000123AB602B6283E7590701D50223C1E7E5
:1026CC00DA0701D50323BDE794F82E30002BB9D0DF
:1026DC000423B7E700A00050DC060020E806002029
:1026EC0002029C0100E100E0F8B50027084B53F80A
:1026FC002040013053F82060A64200D8F8BDD4E940
:10270C0000352846984708B105B1AF600834F3E7A7
:10271C00C45200000F4B70B505461E460E4C9C4231
:10272C0004D10D4CB44208D1002410E0A26812B1BF
:10273C002268AA420BD01034F1E7A3680BB910340D
:10274C00F0E72846216802F0DCF80028F7D1204693
:10275C0070BD00BF1C010020BC00002008B50B4D53
:10276C004FF02002EFF3118382F31188BFF36F8FC8
:10277C0002F02FFB012104460228D8BF084602F0C4
:10278C0038FB2C62FEF756FEEAE700BFF807002084
:10279C000248034A0021121A02F011B980010020EC
:1027AC005808002008B50648064A0749121A02F0D4
:1027BC00DBF8BDE80840054A0549064802F0D4B8E4
:1027CC000000002080010020A05700000000000045
:1027DC00A057000000000020012208B50B4B02207E
:1027EC001A70FFF781FF0A4A0A490B4801F02DFEC7
:1027FC000320FFF779FF00F095FD01F00FFE074A6B
:10280C00137B23F00103137308BD00BF5508002090
:10281C00EB53000060570000705700008407002045
:10282C002DE98048DFF8F890A5B089F308880024DA
:10283C00E023344D4FF0010B85F82230EC772C76E9
:10284C006C76AC76EC766B6A2F4E43F4E0236B62BD
:10285C006B6ADFF8D0A043F400236B62AC63FEF725
:10286C0069FFFEF7E1FD4FF0FF33AB62EB6240F224
:10287C000113264DADF8283007ABAB602046CDE9EF
:10288C001F44FFF731FF0120FFF72EFFDFF8988080
:10289C0000F058FC1E4B6E624FF48062414630468D
:1028AC000593CDE9034B5346CDE90144009400F068
:1028BC0013FD737B304623F00403737302F0C8F9E5
:1028CC000F23144F4FF4A0723846CDE9024312493E
:1028DC00124BCDE904B4CDE9004400F0FDFC7B7B48
:1028EC004FF4806223F004037B7305F11803C5E9F0
:1028FC000633414653463046EF602C75C5F80490BC
:10290C00FEF774FD00ED00E084070020F8070020BE
:10291C009757000010070020580C00206927000072
:10292C0098150020E52700005808002070B50E4BC4
:10293C000E4CA34201D3002070BDD3E9030141EA40
:10294C00000212F003020BD19D685A61AA4201D118
:10295C001C33EEE75E6901320E6059610144F5E704
:10296C006FF01500E8E700BF1C0100201C010020DF
:10297C00D3B50C4616461F464FF02003EFF31181DA
:10298C0083F31188BFF36F8F43695BB123601B68BE
:10299C004361836901338361002081F31188BFF3A4
:1029AC006F8F11E056EA070203D16FF00B00236022
:1029BC00F3E70246CDE90067044800F06BFB18B959
:1029CC00034B9B685B69236002B0D0BD56080020A6
:1029DC00F807002070B504460D464FF02003EFF3C6
:1029EC00118683F31188BFF36F8F02F0A7F958B1EA
:1029FC0000212A680167426102F02AF93146BDE8DC
:102A0C007040084802F0F9B82B6862691A602B68AC
:102A1C006361A369013BA36186F31188BFF36F8FD8
:102A2C0070BD00BF560800202DE9F3410446164640
:102A3C001F464FF02003EFF3118883F31188BFF387
:102A4C006F8FC368324A6BB180689168884219D025
:102A5C0056EA070318D188F31188BFF36F8F6FF014
:102A6C000F000CE0916891F90E100133E36093684C
:102A7C002161A36088F31188BFF36F8F002002B02F
:102A8C00BDE8F0812169F0E790F90E3091F90E1054
:102A9C009942A8BF194621EAE1718B422CDD00F066
:102AAC000DFB054622464146CDE90067194800F06A
:102ABC00F1FA0028E3D04FF02003EFF3118683F3F3
:102ACC001188BFF36F8F236821699C4207D033B103
:102ADC0093F90E309942A8BF194621EAE171A0681A
:102AEC0090F90E30994209D16DB13146094802F086
:102AFC0084F86FF00A00C2E70025D3E700F0DEFA95
:102B0C000028F2D1F0E786F31188BFF36F8FF0E75E
:102B1C00F80700205608002038B583680446002BBF
:102B2C0036D01E4A9268934235D1DA7B013ADA7379
:102B3C00C368012B05D0013BC36000F0C3F8002033
:102B4C0038BD4FF02003EFF3118583F31188BFF3E9
:102B5C006F8F0169806890F90E30994201D000F0B6
:102B6C00ADFA204602F0EAF8A06058B190F90E20B8
:102B7C0022610022026702F06BF82946084802F035
:102B8C003CF8DAE7E06085F31188BFF36F8FD4E788
:102B9C006FF01500D4E74FF0FF30D1E7F8070020B5
:102BAC005608002010B5084C23685BB1FEF742F8BC
:102BBC002268064910440861BDE810400021104607
:102BCC0002F017B910BD00BF30080020F807002034
:102BDC00F8B50C464FF02003EFF3118583F3118801
:102BEC00BFF36F8F4FF4004140F2E736002700220D
:102BFC00E1FB0067094B30461A6139464FF47A7293
:102C0C000023FDF715FB064B1860064B1C60FFF705
:102C1C00C9FF85F31188BFF36F8FF8BDF80700204B
:102C2C00300800202C0800204FF02003EFF3118116
:102C3C0083F31188BFF36F8F044B9A68D37B013BEE
:102C4C00D37381F31188BFF36F8F7047F80700209F
:102C5C00094B03F12802824205D19B688B4202D1B9
:102C6C004B7BDB0606D1D1E9003213605A6000239E
:102C7C00C1E90033704700BFF807002070B5104C55
:102C8C00064604F1280001F0D9FF0546A368597BDC
:102C9C00880644BF41F00801597305B9E5684EB97F
:102CAC005A7BD20606D1AA6922B9DA897F2A01D9C0
:102CBC00636270BDAB4201D0FFF774FF6562F8E749
:102CCC00F807002010B54FF02003EFF3118483F3C5
:102CDC001188BFF36F8F084B00209A68D37B0133A8
:102CEC00D373FFF7CBFF84F31188BFF36F8FBDE86D
:102CFC00104001F099BF00BFF807002070B4437B6F
:102D0C00DB062AD1836943BB154A114651F8284F7B
:102D1C008C4218BF2346002B38BF0023D46AB3B1B2
:102D2C0090F90E6093F90E50AE4203DBA3420ED025
:102D3C001B68F4E75A68C0E9003210605860437BA6
:102D4C0063F07F03437370BC0020FFF797BFC0E9AB
:102D5C000014D36A1860D062F1E770BC704700BFF2
:102D6C00F807002010B54FF02002EFF3118482F326
:102D7C001188BFF36F8F427B510704D484F3118801
:102D8C00BFF36F8F10BD22F004024273FFF7B6FF42
:102D9C002146BDE81040014801F02FBF5608002025
:102DAC000146F8B54FF02003EFF3118483F311883B
:102DBC00BFF36F8F90F90D30002B02DA1948FFF733
:102DCC0047FF194A104650F8283FD56A834208BF7E
:102DDC000023002B38BF0023EBB191F90E7093F94F
:102DEC000E60B74203DB9D4215D01B68F4E75868B0
:102DFC00C1E90030016059604B7B906863F07F0340
:102E0C004B73431A58425841FFF738FF84F311882B
:102E1C00BFF36F8FF8BDC1E90005D36A1960D162A9
:102E2C00EAE700BF20080020F807002038B5154A53
:102E3C00154B146801469868A0421C4603D1BDE8A6
:102E4C003840FFF7AFBE00251560104A1268B2B1CA
:102E5C00C2897F2A13D80E4A90F90E5012689542F7
:102E6C000DDB0C4A90420AD0826942B91A698A4237
:102E7C0002DCFFF795FFE2E7521A1A6138BD002316
:102E8C002361FBE728080020F80700203008002009
:102E9C002C0800201007002070B50446183001F0F3
:102EAC0082FF4FF02003EFF3118683F31188BFF3F9
:102EBC006F8F94F90D30002B07DA21460E48FFF77F
:102ECC00C7FE637B03F07F0363730C4D637BA868C1
:102EDC0043F010036373031B58425841FFF7CEFEB7
:102EEC0086F31188BFF36F8FAB68A34203D1BDE8A3
:102EFC00704001F099BE70BD20080020F80700203A
:102F0C00836D2DE9F041044603B1984704F1180094
:102F1C0001F049FF4FF02003EFF3118683F3118882
:102F2C00BFF36F8F637BD80623D1A2690ABB190646
:102F3C0007D521461E48FFF78BFE637B03F07F030A
:102F4C0063731C4B9868021B50425041FFF796FE6E
:102F5C000027637B04F1280843F008036373A56A18
:102F6C00454500D095B986F31188BFF36F8FBDE846
:102F7C00F0819B07ECD52146A068FFF769FE637BC7
:102F8C0023F0020363730023A360E1E705F118004B
:102F9C0001F009FFA8682946FFF75AFE6B7B28460B
:102FAC0023F002036B73AF602F67FFF7A7FED6E722
:102FBC0020080020F807002008B590F90D300146D4
:102FCC00002B06DA0748FFF743FE4B7B03F07F0329
:102FDC004B73054B9868431A58425841BDE808405A
:102FEC00FFF74CBE20080020F8070020F8B5054676
:102FFC0001F01AFF2C184FF02003EFF3118783F325
:10300C001188BFF36F8F0D4E0D4BB068186001F037
:10301C005AFEB0680B492A46EB17183000F01EFA1E
:10302C00B2683846537B43F010035373FEF750F9E4
:10303C0001F0FAFE201A20EAE070F8BDF807002033
:10304C00280800207D4C00002DE9F041064614466E
:10305C001D464FF02003EFF3118783F31188BFF364
:10306C006F8F01F040FE87F31188BFF36F8F6B1CDD
:10307C0008BFB4F1FF3F08D022462B4606F11800DA
:10308C000349BDE8F04100F0E9B9BDE8F08100BFAB
:10309C007D4C000010B50C46064B11469868064B4B
:1030AC001860DDE90223FFF7CFFF2046BDE8104092
:1030BC00FEF70EB9F8070020280800202DE9F04192
:1030CC0004464FF02003EFF3118883F31188BFF30C
:1030DC006F8F437B4EB2DB062ED1856965BB184FD3
:1030EC00214607F12800FFF7B3FDBB6AFA6A834259
:1030FC0018BF1D46002D38BF0025A673B5B195F934
:10310C000E10B14203DCAA4210D02D68F6E76A68B3
:10311C00C4E9005214606C600120FFF7AFFD012080
:10312C0088F31188BFF36F8FBDE8F081C4E900020A
:10313C00FB6A1C60FC62EFE70020A673F0E700BF9F
:10314C00F80700200021044B084603F12802C3E9CC
:10315C000A22FFF73DBD00BFF8070020F8B5244C4C
:10316C00244BA2689A4230D04FF02003EFF3118524
:10317C0083F31188BFF36F8FA16804F12800FFF768
:10318C0067FDA36AA268834208BF0023002B38BFE7
:10319C000023E16A2BB392F90E7093F90E60B742DB
:1031AC0003DB8B421DD01B68F4E75968C2E9003180
:1031BC000A605A60537B012063F07F035373FFF75F
:1031CC005DFD85F31188BFF36F8F4FF02003EFF394
:1031DC00118083F31188BFF36F8FBDE8F840FEF7C1
:1031EC0077B8C2E90001E36A1A60E262E2E700BF65
:1031FC00F8070020100700200B46013308BFB0F180
:10320C00FF3F10B506D10B4B9868FFF745FE4FF00A
:10321C00FF3010BD044648B9FFF7A0FF4FF47A7099
:10322C0084FB0034D80B40EA4440F2E7FFF7DEFEA3
:10323C000446F3E7F8070020014B9868704700BF7D
:10324C00F807002038B504464FF02003EFF3118542
:10325C0083F31188BFF36F8F01F070FD48B100222A
:10326C00026701F0F5FC2946BDE83840044801F03E
:10327C00C4BCD4E902329A4218BF0133A360F2E70E
:10328C005608002037B514461D464FF02003EFF3C7
:10329C00118183F31188BFF36F8F836843B1013BB6
:1032AC00836081F31188BFF36F8F002003B030BDB2
:1032BC0054EA050306D181F31188BFF36F8F6FF0C9
:1032CC000F00F3E70246CDE900450248FFF7E2FEA6
:1032DC00ECE700BF56080020F0B500F12805C0E966
:1032EC000A55042545730025044687B0DDE90F67B0
:1032FC00CDE9036786730E9EC0E9065502960D9EB6
:10330C00077301960C9EC5730096FEF755F8044B97
:10331C00C4E915559B6803B19B6EA36607B0F0BD5D
:10332C00F80700202DE9F04FDFF8B4902B4DC8467C
:10333C0087B04D4505F130040DD3FFF775FC4FF404
:10334C000049264CDFF89CA0444521D307B0BDE8CA
:10335C00F04FFFF7B7BC54F8043C059354F8103CFD
:10336C00049354F8143C039354F8183C029354F807
:10337C001C3C019354F8203C009354E90A2354E973
:10338C000C01FFF7A9FF54F8303C5D652546D0E7EA
:10339C00616A4B1C17D040F2E73B4FF0000C21EA5E
:1033AC00E171C9FB01BC00234FF47A7258466146A7
:1033BC00FCF73EFF0027064656EA0703256804D1B2
:1033CC002846FFF7CFFC3034BEE702463B46514659
:1033DC0005F1180000F042F8F5E700BF1C010020D1
:1033EC001C0100207D4C0000034B1B680BB9FDF742
:1033FC0021BC0020704700BF34080020036840B196
:10340C00074A5268904204D01BB19A6881680A44FA
:10341C009A60426813605A600023C0E90033704719
:10342C00740000200B4B10B51C689C4208BF002494
:10343C00FFF7DAFF54B1A368181A20EAE070064BC4
:10344C001B6913B19842A8BF184610BD6FF000401D
:10345C00F5E700BF74000020F80700202DE9F74FB6
:10346C00019119464B1C08BFB2F1FF3F824661D057
:10347C006FF001034FF0FF3B541C41F10005B3EB1F
:10348C0004086BEB0509B8F1000F79F100030FDBB1
:10349C00FFF7AAFF6FF001032B4AD2E9001C5B1A5D
:1034AC006BEB0C021E1B62EB0507341A67EBE07525
:1034BC00019BCAF80C304FF02003EFF3118683F315
:1034CC001188BFF36F8FFFF78FFF012C75F100038D
:1034DC00B8BF01241D4B20441A68CAF808009A4250
:1034EC0001D05C6852B95A68CAF80030CAF8042096
:1034FC005A68C2F800A0C3F804A00DE09068DAF88E
:10350C000810884219DD411A91605168CAE90021FE
:10351C00C1F800A0C2F804A01A689A4206D09245DD
:10352C0004D1FFF77FFF0021FDF720FB86F3118804
:10353C00BFF36F8F03B0BDE8F08F091A9442CAF83D
:10354C000810D0D01268CDE7800100207400002054
:10355C002DE9F0470646FFF769FC4FF02003EFF327
:10356C00118483F31188BFF36F8FDFF884801F4DB4
:10357C00C146DFF880A02E60DAF800002A685045BA
:10358C00D8E9006705D020B18368934213DD9B1AFC
:10359C008360B61847EBE277C9E9006700262E6016
:1035AC00FFF740FF3146FDF7E1FA84F31188BFF3D2
:1035BC006F8FBDE8F087F61847EBE377D31A2B60D3
:1035CC0000238360C8E90067FFF718FF84F31188B4
:1035DC00BFF36F8FC36898474FF02003EFF311844C
:1035EC0083F31188BFF36F8FC6E700BF3408002048
:1035FC00800100207400002010B54FF02003EFF381
:10360C00118483F31188BFF36F8FFDF713FB064B07
:10361C00D3E90023121843F1000384F31188BFF39C
:10362C006F8F1046194610BD8001002038B5064C2E
:10363C00064DAC4201D3002038BD2046D4E901121E
:10364C0001F0F6FB1434F4E71C0100201C010020EF
:10365C0001F073B90A46002101F0B1B910B5114857
:10366C0000F048F800B110BD0F4800F043F80028F6
:10367C00F9D10E4C204600F03DF80028F3D10C4B4C
:10368C000C481C6000F036F801460028EBD100F025
:10369C002DF8044608B1204610BD00F051F8204624
:1036AC00FAE700BF880000207C0000208400002086
:1036BC008C0000208000002008B5084800F024F899
:1036CC00074800F021F8074800F01EF8064800F003
:1036DC001BF8BDE8084000F00BB800BF88000020C4
:1036EC007C00002084000020800000200020704717
:1036FC00704700BF08B5034B02681B6810689847F9
:10370C00002008BD9800002008B5034B02685B68D8
:10371C0010689847002008BD980000200268024BF2
:10372C0010689B68184700BF9800002008B5034B31
:10373C000268DB6810689847002008BD98000020DC
:10374C0070B5094C094D2069AB68984718B1084B06
:10375C0008485B6898470021074AEB6811602069AC
:10376C00BDE87040184700BFA8000020980000205A
:10377C0090000020DC52000038080020F8B51A4CEC
:10378C001A4D0746AB6820699847E8B9184E33685C
:10379C007FB93BB90120174A1749C2F800050A68DE
:1037AC00002AFCD101333360EB6820699847002074
:1037BC00F8BD002BF8D0012B08D0013B33602069F9
:1037CC00EB6898470020F3E70C48F8BD0A4A1368E9
:1037DC00002BFCD1074A6FF07E40C2F8003500F098
:1037EC0021F83368E9E700BFA8000020980000200A
:1037FC00380800200000845010198450E98FFFFF16
:10380C000020704700207047430503D54FF0FF326E
:10381C00024B1A60024B1860704700BF08118450AD
:10382C00081A8450014B1860704700BF041A84506A
:10383C0008B100F003B84FF4750070470246074812
:10384C0003681342FCD021B1054B06481B680B6082
:10385C000360054B00201A60704700BF001A8450AB
:10386C000411845008118450081A845000F0A0B838
:10387C0030B129B100230144037001308142FBD1E6
:10388C00704700BF2DE9F041ADF51A7D0F4605924A
:10389C000021144612A84FF408721E4601F08FF84E
:1038AC00002308A819462822069301F088F8002F57
:1038BC003CD0002E3AD0002C38D0042106A8FFF7BB
:1038CC00C9FE08A82821FFF7C5FE08A800F032F8A9
:1038DC0078B14FF0FF3512A84FF40871FFF7C8FF0D
:1038EC0006A80421FFF7C4FF28460DF51A7DBDE894
:1038FC00F08112AB0DF11C080390CDE90163024677
:10390C0005AB08A9CDF8008006A800F0E9FC00285A
:10391C00DFD13368A342DCD3D8F800100546083158
:10392C0038462246FFF794FE3460D4E74FF0FF355B
:10393C00DAE700BF1C2330B583B002A941F8043D7F
:10394C00044600F0B1F90546D8B9019B1C2B1BD1DC
:10395C00D4E9003201210033E16118BF01230AB11F
:10396C0043F00203A26832B9E268AAB9C4E908328A
:10397C003BB90D4D09E0E26843F0040362B9C4E9B8
:10398C000832284603B030BD084D20461C21FFF7F5
:10399C0061FE284603B030BD0022284643F00803E0
:1039AC00C4E9083203B030BD0E0CF000370CF00047
:1039BC0010B50C4C236813B10B4B1B686BB900F0A2
:1039CC0031F938B10138062896BF084B084853F82E
:1039DC00200010BD0122044B1A600123002023603B
:1039EC0010BD00BF3C08002040080020FC52000025
:1039FC00FE8FFFFF10B5094C23681BB1012300207B
:103A0C00236010BD00F07CF80028F7D001380628A0
:103A1C0096BF034B034853F8200010BD3C08002010
:103A2C00FC520000FE8FFFFFBFF34F8F0549064B82
:103A3C00CA6802F4E0621343CB60BFF34F8F00BF40
:103A4C00FDE700BF00ED00E00400FA05014B5B68E8
:103A5C00184700BF90000020024BD0E90012C3E9C8
:103A6C000012704790000020704700BF10B504464C
:103A7C0020B1BFF35F8F0020206010BD0348FFF71B
:103A8C00E5FFBFF35F8F0020206010BD3C530000AA
:103A9C0010B5044610B10023236010BD0248FFF797
:103AAC00D5FF0023236010BD1853000050B1012234
:103ABC00D0E8EF3FC0E8E12F0029F9D1012BF7D076
:103ACC00BFF35F8F0020704770B40B4B0668C26861
:103ADC00D0E90154C3E90242C3E90065D1E903020C
:103AEC000E68064BD1E90154C3E90065C3E90240F5
:103AFC001A6170BC704700BF98000020A80000201D
:103B0C0010B5FFF77DFE70B9FFF7A8FD80B9FFF780
:103B1C0035FE80B9114B1B681B0EF02B0DD0062403
:103B2C00FFF770FE00E00324FFF7C6FD204610BD32
:103B3C000424204610BD0024F2E7094A094B126800
:103B4C009A4201D00724EBE70120FFF717FE00286B
:103B5C00F1D1054B04461860E8E700BF28198450E2
:103B6C00241A84500000E0200C1A845030B5ADF5B6
:103B7C00157D4FF4087200210CA800F020FF0023E3
:103B8C0002A819462822019300F019FF02A8FFF79A
:103B9C00D1FE18B105200DF5157D30BD1C4D4FF033
:103BAC00FF312868FFF7BAFD0446F0B90020FFF793
:103BBC00E5FDB0B90CAA02A901A800F0D5FB04469A
:103BCC000120FFF7DBFDF0B92868FFF7AFFD10B15E
:103BDC001048FFF73BFF2046002CDBD10DF5157D7F
:103BEC0030BD0D48FFF732FFE4E70C48FFF72EFF1E
:103BFC00012CDBD12868FFF799FD0028CAD00548B5
:103C0C00FFF724FFC6E70648FFF720FFDCE700BFFD
:103C1C008C000020745300008C5300005C53000097
:103C2C00AC53000008B5FFF7EBFD18B1FFF744FDEE
:103C3C00032008BDFFF712FD68B9FFF79FFD60B9BF
:103C4C00154B1B681B0EF02B12D0FFF7DBFDFFF79B
:103C5C0033FD062008BD042008BDFFF7D3FDFFF798
:103C6C002BFDFFF783FF00280CBF0020052008BDAB
:103C7C000A4A0B4B12689A4205D0FFF7C3FDFFF7B7
:103C8C001BFD072008BD0120FFF778FD0028E4D1BB
:103C9C00044B1860E5E700BF28198450241A84509F
:103CAC000000E0200C1A845018B111B10B681C2BC9
:103CBC0001D0012070474FF47F033A4AD3F8101C0F
:103CCC0091425AD0D3F8102C013256D0D3F8102C84
:103CDC004FF47F030260D3F8141C334A91425ED038
:103CEC00D3F8142C01325AD0D3F8142C4FF47F0390
:103CFC004260D3F8182C12F5947F4DD0D3F8182CC1
:103D0C00013249D0D3F8182C4FF47F038260D3F8DA
:103D1C001C1C264A91423CD0D3F81C2C013238D0C2
:103D2C00D3F81C2C4FF47F03C260D3F8002C7032F4
:103D3C002DD0D3F8002C013229D0D3F8002C4FF41D
:103D4C007F030261D3F8042CAF321ED0D3F8042CBD
:103D5C0001321AD0D3F8042C4FF47F034261D3F80C
:103D6C00081C134A91420BD0D3F8082C013207D00F
:103D7C00D3F8083C83610020704740F6FC02A7E7AB
:103D8C0040F237338361002070475122E4E79022E0
:103D9C00D5E742F60412C5E740F6D862B4E742F222
:103DAC00D002A3E7FCF8FFFFD020FFFF0429FFFFA0
:103DBC0037F3FFFFA8B32DE9F0414C1EB4F5047F97
:103DCC002CD25BB352B34FF0000CC900E6466546EB
:103DDC0064464F1E03F1FF380CE0AB4216D08E4503
:103DEC0001D10CF1010CA84516D00134BC4205F1EF
:103DFC00010518D8610950F8211004F01F06F14094
:103E0C001F2E18BF01F00101002CE6D10025A8459A
:103E1C008E464FF0010CE8D16245E6D20348BDE86E
:103E2C00F081024870470020BDE8F081370CF100AA
:103E3C002DE9F04F8FB00D46DDE91941834600297D
:103E4C0057D12969039100211C60189B1960002A25
:103E5C0000F02281814A824B11686A6A1B689A427F
:103E6C0057D10A2955D19BF80330069303990423A3
:103E7C0008467C4A0293A2FB00029208CB0002EB9C
:103E8C00420204F10800A1EB4202013BDFF8D091A1
:103E9C00DFF800A2049000920593189B039C1C6011
:103EAC00002C00F0CC800026049F00F0A9FA00231F
:103EBC000793069BBBF1000F3AD0002D34D053BBB7
:103ECC005B000693BBF1000F36D0002D34D0E3B16C
:103EDC0006A9284600F084FA002800F07D81624B88
:103EEC00984212D0009000F08BFA00980FB0BDE809
:103EFC00F08F4FF47F01D1F80C0C01300CBF4FF454
:103F0C000471D1F80C1C03919DE72B6A73B95648C8
:103F1C00E8E75648E6E706A9284600F061FA68B1DA
:103F2C00534B9842DED0069B082BC9D15148D9E798
:103F3C00082BFBD05B0006934F48D3E72946069825
:103F4C0000F030FA0028EBD1069B082B00F00E8114
:103F5C00042B00F03181A3F10203B3FA83F35B0964
:103F6C00019301231946454A136042F8843C434BA4
:103F7C0019606B6AC9F80030D9F800206B6A9A4254
:103F8C00F5D14FF000084FF0FF30CAF80080FFF772
:103F9C003BFC3B4A3B4B40461A60FFF743FC0A2272
:103FAC00019839492D4B08601A602A69A8F15538D7
:103FBC00A8FB02126B6A120903EB4303DB0303FB3E
:103FCC0002F3324A9B0913600123CAF800300699A8
:103FDC00DBF800200B0243EA016322F07F4213431B
:103FEC00CBF8003007A800F0CDF9002898D1284B69
:103FFC00A8FB04281A681433089253F8102CB6EB5B
:10400C00980F099253F80C2C0A9253F8082C0B9227
:10401C0053F8042C0C921B680D9301D1009B9BB997
:10402C003846182208A9FFF713FB183C183701363D
:10403C00002C7FF43AAF049B002B40F09A800023B5
:10404C00189A1360069B6FE71A46384608A9E41ABB
:10405C00FFF7FEFA009B1F44E9E700BF38118450BC
:10406C0030118450ABAAAAAA310CF100300CF1002B
:10407C00020CF100320CF100350CF100C41184502B
:10408C00FEFFFF0F001184500C118450D811845086
:10409C00141184502C118450BBF1000F3FF44CAF21
:1040AC00002D3FF449AF01230EA941F8203DCBF878
:1040BC000020284600F094F900287FF413AF29461D
:1040CC00069800F06FF900287FF40CAF069F082FBC
:1040DC0000F0EB80042F00F0EA80A7F10207B7FA9A
:1040EC0087F77F0901221646734B74491A601846EC
:1040FC000A60943B06606A6A1A6019686A6A91429F
:10410C00F8D14FF000086E4B4FF0FF30C3F8008031
:10411C00FFF77AFB6B4B6C4A40461A60FFF782FB49
:10412C000A226A496A4B0F601A601A992B69012995
:10413C006A6A00F0B1806749A1FB03131B090121D6
:10414C0002EB4202D20303FB02F3634A9B091360A6
:10415C005B4B19600699DBF800200B0243EA016304
:10416C0022F07F421343CBF800307FE60323019308
:10417C00F7E6039BB3F5047F3FF661AFDDE9047C02
:10418C00204623466E6904E0012001336345144642
:10419C0015D85A0957F8222003F01F01CA401F29CD
:1041AC0018BF02F00102002BEED0A242ECD101307C
:1041BC008642EAD149480BE002230193D1E64FF441
:1041CC008063DDE90310AA69FFF7F4FD00285DD0D8
:1041DC000023189A1360A3E62946069800F0E2F82B
:1041EC0000287FF47CAE069C082C51D0042C51D0B6
:1041FC00A4F10204B4FA84F4640901231E4619469E
:10420C002D4A136042F8843C2B4B19606B6AC9F839
:10421C000030D9F800206B6A9A42F5D100274FF094
:10422C00FF30CAF80070FFF7EFFA264B264A3846E3
:10423C001A60FFF7F7FA0A222449254B0C601A6022
:10424C002A6924496B6AA1FB021203EB430312098E
:10425C00DB0303FB02F3204A9B091360CAF80060DE
:10426C00069BDBF800101A0242EA036321F07F423E
:10427C001A43130A03F47F03134323F07F43CBF851
:10428C000030029B013B02937FF407AE002029E62D
:10429C000324B2E70224B0E74FF47F03D3F80C1CDD
:1042AC00013106D0D3F80C3C45E703271AE7022767
:1042BC0018E7162343E700BFC41184504011845003
:1042CC002C11845000118450FEFFFF0F0C118450F0
:1042DC0038118450ABAAAAAAD8118450360CF1001C
:1042EC002DE9F0431B4C85B00746DDE90D56884699
:1042FC0020684FF0FF319146FFF710FA28BB0020E1
:10430C00FFF73CFAE8B90023CDE9005602934A4680
:10431C00414638460C9BFFF78BFD05460120FFF705
:10432C002DFA50B92068FFF701FA10B10A48FFF7CF
:10433C008DFB284605B0BDE8F0830848FFF786FBE7
:10434C00F0E70748FFF782FBDDE70648FFF77EFB47
:10435C00D5E700BF8C00002074530000AC53000064
:10436C008C5300005C53000010B5012486B005ABE3
:10437C00CDE901240093002204ABFFF759FD06B0F0
:10438C0010BD00BF08B501464FF48060FFF750FA2E
:10439C0000230249024A0B60136008BDC811845007
:1043AC002C1184500138072815D8DFE800F0100CC8
:1043BC00140814141404CB6800204B6270478B68EB
:1043CC0000204B6270474B6800204B6270470B68B3
:1043DC0000204B6270470148704700BF310CF10060
:1043EC000B6802E0082B0B6006D8026A13424FEAF6
:1043FC004303F7D00020704700487047310CF100A0
:10440C0000230449044A0B604FF480601360FFF7EB
:10441C00FBB900BF2C118450C411845008B5FCF7B3
:10442C0063FDBDE80840FCF7F5BC0020704770B593
:10443C000D4604464520A04729465220A047294650
:10444C002346BDE87040522018470FB407B504A9A5
:10445C0051F8040B0191FCF789FA03B05DF804EBF9
:10446C0004B07047044608B5084611461A46A047E2
:10447C00FEF7E2FEFDF792F9036803EBC1018368D6
:10448C00B3F5004F2CBF51F8220031F812007047E1
:10449C0010B50468806804EBC101B0F5004F2CBF67
:1044AC0041F8223021F8123010BD2DE9F0410446BC
:1044BC0000220D46FFF7E0FFE268A3681040B3F559
:1044CC00004FB0FA80F234BF002001206368C0F1C5
:1044DC001F00801A03EBC0014A68561C4E60A2B93B
:1044EC00012202FA00F162690A436261294643F82B
:1044FC00305002222B462046FFF7CAFF03222946E2
:10450C002046BDE8F041FFF7C3BF53F830700222DC
:10451C0039462046FFF7B0FF0646034602222946DD
:10452C002046FFF7B5FF3B46032229462046FFF7FE
:10453C00AFFF032231462B462046FFF7A9FF02228C
:10454C003946DDE7F8B58B1847F6FF72CC1D24F021
:10455C00070423F007031B1BDB08B3F5004F2CBF2C
:10456C006FF000411146046000209342E16094BF5B
:10457C0000210121B3FA83F617468446C1F12001CC
:10458C0004F11805891B21F06041C4E90153033182
:10459C00246060612161A268BA4294BF00220122AA
:1045AC00C2F11F02921B90420ADD20465B1A0022C8
:1045BC00FFF76EFF20462169BDE8F840FFF775BF95
:1045CC00C5F804C0013045F808CBE4E77047FDF7A7
:1045DC0049BD0C22C368C9B202FB01314B7A23B925
:1045EC00087AB0FA80F0400970470220704770B525
:1045FC00C9B24468C5684FF02003EFF3118683F30A
:10460C001188BFF36F8F0C224A43AB18187A90B104
:10461C000138C0B2187288B904EB8101A850CA786D
:10462C00012102F1502258601160587286F31188F2
:10463C00BFF36F8F70BD6FF04400F7E70020F5E714
:10464C002DE9F8434668D0F80CE0CFB24AB10C2300
:10465C007B435EF803309A4252D013B11B68002B97
:10466C00F9D14FF02003EFF3118C83F31188BFF3D2
:10467C006F8F0C257D430EEB05031C7A0134E4B2DD
:10468C001C728CF31188BFF36F8F5AB34FF0502C00
:10469C004FF00308CCF8088393F809C0BCF1000F65
:1046AC0015D14FF02008EFF3118988F31188BFF36F
:1046BC006F8FC2F800C0D3F80480B8F1000F1BD183
:1046CC005A604EF8052089F31188BFF36F8F4FF0B5
:1046DC0050230325C3F80453BCF1000F02D0D2E9D8
:1046EC0001329847012C05D106EB8706B37803F10C
:1046FC0050231C60002005E0C8F800205A60E2E757
:10470C006FF00F00BDE8F8830022FFF799BF10B5DA
:10471C000022044601210520FCF738FE0520FCF799
:10472C0025FE4FF050230222C3F818250322002047
:10473C00C3F80423E368C3E90000E368C3E903009A
:10474C0010BD7047704700F01F021F210420FCF7BA
:10475C00A9BA00F0070207210220FCF7A3BA02460F
:10476C0001210720FCF79EBA400100F0E002E02195
:10477C001520FCF797BA18223F212A20FCF792BA91
:10478C00400000F0FE0202212920FCF78BBA132214
:10479C003F212C20FCF786BA024601212B20FCF786
:1047AC0081BA002307B501A88DF80430FFF75EF835
:1047BC0003B05DF804FB902908B5134639D10A46BD
:1047CC0001460020FFF75EF8BDE8084071467246CE
:1047DC007346B7EE000AF7EE000AB7EE001AF7EED2
:1047EC00001AB7EE002AF7EE002AB7EE003AF7EE01
:1047FC00003AB7EE004AF7EE004AB7EE005AF7EE71
:10480C00005AB7EE006AF7EE006AB7EE007AF7EEE0
:10481C00007A8EF3008C10B4F1EE10CA4FF660746F
:10482C00C0F6FF740CEA040CE1EE10CA10BCF4469E
:10483C0074476FF01500C7E7FEE70021012000F078
:10484C0029B843B2A9B1002B12DB01215B099B00F3
:10485C0003F1604303F56143D3F8802200F01F009D
:10486C0001FA00F022EA0000C3F88002D3F880328B
:10487C007047002BFCDB01225B099B0003F16043BA
:10488C0003F56143D3F8801200F01F0002FA00F028
:10489C000843E9E700F071B90146006800F06DB912
:1048AC0008B5FCF7D5FDBDE80840FCF74BBF30B5AB
:1048BC004B680C6885B00A898D7A0094013B24F012
:1048CC001F04234402F01F0242EA451223F01F0387
:1048DC000F2804468DF80820039305D86946FCF789
:1048EC00ADFF204605B030BD6FF01504F9E740E888
:1048FC0000F0C3B210F4803F14BF18466FF01500DF
:10490C0070470138013910F8013F11F8012F93421B
:10491C0001D1002BF7D1981A704710B55AB1013953
:10492C00841810F8012B11F8013FA04201D09A42D3
:10493C00F7D0D01A10BD1046FCE7431A934210B5BD
:10494C0000EB020308D3024601399A420BD011F84E
:10495C00014F02F8014BF8E70A4412F8014D8A4264
:10496C0003F8014DF9D110BDF0B581EA0004A5079B
:10497C0003460BD0013B0A4491421BD1F0BD002AE7
:10498C00FCD011F8014B013A03F8014B9C07F6D10E
:10499C0022F003041D1F96080F19B94205D16FF0C0
:1049AC000305234405FB0622E4E751F804CB45F844
:1049BC0004CFF2E711F8014B03F8014FDCE7034693
:1049CC0070B5C9B29C0711D141EA012422F003064B
:1049DC0044EA04451E449408B3420DD16FF003051C
:1049EC0005FB04221A44934209D170BD002AFCD065
:1049FC0003F8011B013AE5E743F8045BECE703F825
:104A0C00011BF0E74FF0FF307047CA07436805D42D
:104A1C00C1F34202012A04D0022A0BD06FF0150018
:104A2C0070474FF0CC721B68C3F82425C368002074
:104A3C00596270474FF0C8621B68F5E70B46C268B5
:104A4C0092E8030083E803000020704743681B686A
:104A5C00D3F88004C3F8800470474368C2681B68AD
:104A6C00D3F8100138B1127B00200A700122C3F870
:104A7C0010011A6070474FF0FF3070472DE9F34179
:104A8C0043688DF807101C68C66800F084F9C0B93B
:104A9C0064254FF0010806F10807D7E8EF3F002B1B
:104AAC0003D1C7E8E28F002AF7D10CD021200021D6
:104ABC00013DFEF7A1FB15F0FF05EED102B0BDE8FC
:104ACC00F0810123B3600023C4F820310DF10703FA
:104ADC00C4F8443501234FF47A75C4F84835A36003
:104AEC00D4F8203123B9012000F015F8013DF7D19D
:104AFC000123E3600023B360E0E7002008B5FCF776
:104B0C002FFE08B5FCF74AFBFCF7CCFBBDE80840D0
:104B1C00FEF770BF004700F044B90B7B032B2AD87B
:104B2C00DFE803F022261A028B685A0304D5D0F86A
:104B3C004C350A699A4207D18B685B031BD4D0F8B9
:104B4C004C354A699A4216D000230622C0F800352B
:104B5C00C0F8002518467047D0F84C350A699A42BF
:104B6C00F2D1D0F83C35ECE7D0F84C350A69E9E7DE
:104B7C00D0F83C35FAE70120704773B50546019132
:104B8C004FF02003EFF3118683F31188BFF36F8F7F
:104B9C00FEF752FB019904462846FFF7AEFF86F359
:104BAC001188BFF36F8F204602B0BDE87040FCF750
:104BBC00F5BDFFF7C7BD30B50024846141EA02049E
:104BCC0014F00304C0E9023201610CD14461A34228
:104BDC0003D1C0E90000002030BD456901340D60EF
:104BEC0041611144F3E76FF01500F5E70023C0E9CC
:104BFC000000C0E902331846704721B9EFF3058075
:104C0C0008B9FCF765BB81F31188BFF36F8F704750
:104C1C00034620B9EFF305820AB9FCF759BB83F3BD
:104C2C001188BFF36F8F70474FF02003EFF31180A3
:104C3C0083F31188BFF36F8FFFF7EABF03689842C5
:104C4C0004D0002B38BF0023184670470020704753
:104C5C0010B54FF02003EFF3118483F31188BFF3E9
:104C6C006F8FFEF74BF884F31188BFF36F8F10BD75
:104C7C0038B550F8103C0446A0F11801C3B14FF000
:104C8C002003EFF3118583F31188BFF36F8F50F876
:104C9C00100CFDF7DDFF14F80B3C23F0020304F8B5
:104CAC000B3C002344F8103C85F31188BFF36F8F45
:104CBC0014F80B3C084623F0140304F80B3CBDE835
:104CCC003840FFF7C5BF10B54FF02003EFF3118448
:104CDC0083F31188BFF36F8FFEF76EF984F311889D
:104CEC00BFF36F8F10BD38B504460D46FEF764F95F
:104CFC00637B43F002036373C5B12B68A5609D42CF
:104D0C0008BF0023002B38BF002383B194F90E1089
:104D1C0093F90E20914204DB6A689A4207D01B6813
:104D2C00F3E75A68C4E9003214605C6038BD6B6804
:104D3C00256063606B681C606C60F7E738B54FF0FA
:104D4C002003EFF3118283F31188BFF36F8FFFF70A
:104D5C0075FF044682F31188BFF36F8FC8B14FF013
:104D6C002003EFF3118583F31188BFF36F8F014696
:104D7C008068FDF76DFF637B23F0020363730023F0
:104D8C00A36085F31188BFF36F8F04F1180000F056
:104D9C000AF8204638BDEFF30580003818BF012013
:104DAC007047FBF705BE10B54FF02002EFF31184EE
:104DBC0082F31188BFF36F8F03683BB1FEF71EFBC4
:104DCC00002084F31188BFF36F8F10BD6FF01500B6
:104DDC00F7E710B54FF02003EFF3118483F311883C
:104DEC00BFF36F8FFEF71EFB84F31188BFF36F8F39
:104DFC0010BD37B5044601914FF02003EFF3118538
:104E0C0083F31188BFF36F8FFEF70CFB012805DDD0
:104E1C00A042019902DD2046FBF7A8FE85F311881C
:104E2C00BFF36F8F03B030BD08B5FEF7E5FB08BDCF
:104E3C0010B400F10C04C0E903445DF8044BFFF717
:044E4C0081BB70476F
:084E50001CB4FF7F010000000B
:104E5800950900000000000039290000000000004A
:104E68003936000000000000D919000000000000D9
:104E78001B470000BC000020791F0000CC00002068
:104E8800591F0000DC000020D109000000000000CC
:104E9800110B0000EC0000200F4B0000FC0000206C
:104EA8002D1C00000C010020991F000000000000CC
:084EB800DD1B000000000000FA
:104EC00000000000474800000000000047480000C4
:104ED00000000000474800000000000047480000B4
:104EE000000000004748000000000000710A0000B8
:104EF0000000000047480000000000004748000094
:104F00000000000047480000000000004748000083
:104F100085250000214B00000000000047480000EC
:104F20000000000047480000000000004748000063
:104F30000000000047480000000000004748000053
:104F40000000000047480000000000004748000043
:104F50000000000047480000000000004748000033
:104F6000000000004748000000000000ED0A0000BB
:104F70000000000047480000000000004748000013
:104F80000000000047480000000000004748000003
:104F900000000000474800000000000047480000F3
:104FA00000000000474800000000000047480000E3
:104FB00000000000474800000000000047480000D3
:104FC00000000000474800000000000047480000C3
:104FD00000000000474800000000000047480000B3
:104FE00000000000474800000000000047480000A3
:104FF0000000000047480000000000004748000093
:105000000000000047480000000000004748000082
:105010000000000047480000000000004748000072
:105020000000000047480000000000004748000062
:105030000000000047480000000000004748000052
:105040000000000047480000000000004748000042
:105050000000000047480000000000004748000032
:105060000000000047480000000000004748000022
:105070000000000047480000000000004748000012
:105080000000000047480000000000004748000002
:1050900000000000474800000000000047480000F2
:1050A00000000000474800000000000047480000E2
:1050B00000000000474800000000000047480000D2
:0850C000000000004748000059
:0850C800FFFFFFFFFFFFFFFFE8
:1050D000DEE61E284CBBCE8F025B000012000000F3
:1050E000130000001500000014000000160000006E
:1050F000170000001900000018000000DEE61E285E
:10510000EAAC45B8025B0000DEE61E284CBBCE8F41
:10511000025B000000000000000000000000000032
:105120000338FDD87047000015470000FB4500001C
:105130004D46000000000000DF4500008E550000D5
:105140004201000095550000050100009F55000038
:1051500014010000A855000015010000B155000021
:1051600039010000BA55000009010000C5550000D2
:105170000A000000D05500000A010000DA550000C6
:105180000B010000E45500000F010000EF55000086
:1051900010010000FA550000110100000556000042
:1051A0000E0100000F5600002101000018560000FB
:1051B0002201000021560000230100002A560000B1
:1051C0002401000033560000180100003B56000087
:1051D0002A010000435600003A0100004B5600002F
:1051E0002C010000535600001C0100005C5600001A
:1051F0001D01000065560000170100006F560000F9
:10520000310100007B560000040100000000000096
:105210000002000000040000000800000010000070
:10522000000000004548000015120000D5110000E4
:105230007D120000B51100001C00002004000020B9
:1052400014000020000000000C00002002000000FC
:105250005452000000000000DD560000060000006F
:10526000E0FF0F0000000020E556000021000000D4
:10527000E0FF0020174A0000611C00000000000051
:10528000000000000000000000A00050000000002E
:105290000C0000000B0000000000400600000000B1
:1052A000674A0000894A0000594A0000591D000061
:1052B000494A0000008000500100000000900050AA
:1052C00001000000584E0000984E0000A04E000063
:1052D000B84E0000C04E0000F5FFFFFF436F756C35
:1052E00064206E6F74206C6F636B20706F776572D3
:1052F0002073617665206D7574657800FF8FFFFF00
:10530000FF8FFFFFFE8FFFFFFE8FFFFFFD8FFFFF71
:10531000FC8FFFFFFC8FFFFF43616E277420696ED7
:10532000697469616C697A65206D757465782C2083
:10533000776173204E554C4C0D0A000043616E2777
:105340007420756E6C6F636B206D757465782C209E
:10535000776173204E554C4C0D0A00004661696C14
:1053600020746F2061637175697265206D75746555
:10537000780A00004661696C20746F2072656C6564
:10538000617365206D757465780A00004661696C0B
:1053900020746F20696E63726561736520504D20C3
:1053A000636F756E7465720A000000004661696C77
:1053B00020746F20646563726561736520504D20B1
:1053C000636F756E7465720A0000000100040401C9
:1053D000080C554152545F30007379735F636C6FF2
:1053E000636B005365637572650909004E6F6E2D1E
:1053F000536563757265090025303275202530329A
:105400007520307825303578203078253035782073
:10541000090025630053504D3A204E5320696D61B9
:10542000676520617420307825780A0053504D3A22
:10543000204E53204D535020617420307825780A37
:105440000053504D3A204E53207265736574207698
:105450006563746F7220617420307825780A005378
:10546000504D3A207072657061726520746F206AC9
:10547000756D7020746F204E6F6E2D53656375725D
:105480006520696D6167652E0A004E6F6E2D53654C
:105490006375726500466C61736820726567696F39
:1054A0006E730909446F6D61696E09095065726D0B
:1054B000697373696F6E730A004E6F6E2D73656347
:1054C0007572652063616C6C61626C6520726567E2
:1054D000696F6E203020706C6163656420696E2096
:1054E000666C61736820726567696F6E2025642041
:1054F000776974682073697A652025642E0A0043F1
:105500006F756C64206E6F7420696E697469616C6C
:10551000697A652073656375726520736572766953
:105520006365732028657272202564292E0A005352
:1055300052414D20726567696F6E0909446F6D6154
:10554000696E09095065726D697373696F6E730ACC
:10555000005065726970686572616C0909446F6D0D
:1055600061696E09095374617475730A00253032DC
:105570007520252D32317325730009534B49500A8C
:1055800000094552524F520A00094F4B0A004E5231
:10559000465F5030004E52465F434C4F434B004EE7
:1055A00052465F52544330004E52465F525443318C
:1055B000004E52465F4E564D43004E52465F554197
:1055C00052544531004E52465F55415254453200C7
:1055D0004E52465F5457494D32004E52465F53502B
:1055E000494D33004E52465F54494D455230004EAE
:1055F00052465F54494D455231004E52465F544920
:105600004D455232004E52465F5341414443004E95
:1056100052465F50574D30004E52465F50574D3105
:10562000004E52465F50574D32004E52465F505723
:105630004D33004E52465F574454004E52465F4928
:105640005043004E52465F564D43004E52465F4611
:105650005055004E52465F45475531004E52465F09
:1056600045475532004E52465F4450504943004E24
:1056700052465F4750494F544531004E52465F52A3
:105680004547554C41544F5253006D757465785FD2
:10569000696E69742063616C6C65642077697468F5
:1056A000204E554C4C20706172616D6574657200BE
:1056B000436F756C64206E6F7420616C6C6F6361F6
:1056C0007465206D75746578206265666F726520FB
:1056D000696E697469616C697A696E6700464C41EC
:1056E00053485F30005352414D5F30004932435FB1
:1056F0003200554152545F31004552524F523A20C8
:1057000043616E6E6F742066756C66696C6C2045C3
:1057100058545F41504920726571756573742E0D40
:105720000A005741524E494E473A204F7074696FF4
:105730006E616C204558545F415049207265717507
:10574000657374206E6F742066756C66696C6C6529
:10575000642E0D0A0048575F43433331305F3000F9
:1057600076322E332E302D7263312D6E63733100FD
:105770002A2A2A20426F6F74696E67205A65706802
:105780007972204F53206275696C6420257320253F
:1057900073202A2A2A0A006D61696E000000000049
:1057A00037440000300100200100000044010020C7
:1057B0000100000058010020010000006C010020E1
:1057C00001000000114A00002800002028000020ED
:1057D0000100000001000000380000203800002017
:1057E00000000000010000000000000000000000B8
:1057F00000C20100000103000000000000000000E2
:1058000040420F0000010300000000000000000003
:105810000090D0037400002074000020AC00002031
:10582000B8000020B0000020A80000208400002064
:1058300000000000353A00009D3A0000753A000073
:10584000B93A0000793A00005008002044080020CE
:0C5850004C080020000000004808002068
:10585C0099550000CA530000285100008C0100200B
:10586C00F2560000BC520000A05200006000002064
:10587C00D2530000B4520000A0520000500000208F
:10588C00D9530000000000000000000000000000E0
:10589C005557000000000000000000000000000050
:1058AC00EC560000885200007452000028000020C2
:1058BC001C0100201C010020000000000000000062
:1058CC000F0000003001002030010020000000001B
:1058DC00000000000F0000004401002044010020E3
:1058EC0000000000000000000F0000005801002024
:1058FC005801002000000000000000000F00000014
:10590C006C0100206C010020000000000000000071
:04591C000F00000078
:105920000000000000000000000000000000000077
:105930000000000000000000000000000000000067
:105940000000000000000000000000000000000057
:105950000000000000000000000000000000000047
:107FE0007FE97FE9F9F71EB87FE97FE9F9F772B811
:107FF0007FE97FE9FCF7E5BB00000000000000001E
:0400000300001511D3
:00000001FF
